{
  "_format": "hh-sol-artifact-1",
  "contractName": "MyToken",
  "sourceName": "contracts/Token.sol",
  "abi": [
    {
      "inputs": [
        {
          "internalType": "uint256",
          "name": "_initialSupply",
          "type": "uint256"
        }
      ],
      "stateMutability": "nonpayable",
      "type": "constructor"
    },
    {
      "anonymous": false,
      "inputs": [
        {
          "indexed": true,
          "internalType": "address",
          "name": "owner",
          "type": "address"
        },
        {
          "indexed": true,
          "internalType": "address",
          "name": "spender",
          "type": "address"
        },
        {
          "indexed": false,
          "internalType": "uint256",
          "name": "value",
          "type": "uint256"
        }
      ],
      "name": "Approval",
      "type": "event"
    },
    {
      "anonymous": false,
      "inputs": [
        {
          "indexed": true,
          "internalType": "address",
          "name": "from",
          "type": "address"
        },
        {
          "indexed": true,
          "internalType": "address",
          "name": "to",
          "type": "address"
        },
        {
          "indexed": false,
          "internalType": "uint256",
          "name": "value",
          "type": "uint256"
        }
      ],
      "name": "Transfer",
      "type": "event"
    },
    {
      "inputs": [
        {
          "internalType": "address",
          "name": "owner",
          "type": "address"
        },
        {
          "internalType": "address",
          "name": "spender",
          "type": "address"
        }
      ],
      "name": "allowance",
      "outputs": [
        {
          "internalType": "uint256",
          "name": "",
          "type": "uint256"
        }
      ],
      "stateMutability": "view",
      "type": "function"
    },
    {
      "inputs": [
        {
          "internalType": "address",
          "name": "spender",
          "type": "address"
        },
        {
          "internalType": "uint256",
          "name": "amount",
          "type": "uint256"
        }
      ],
      "name": "approve",
      "outputs": [
        {
          "internalType": "bool",
          "name": "",
          "type": "bool"
        }
      ],
      "stateMutability": "nonpayable",
      "type": "function"
    },
    {
      "inputs": [
        {
          "internalType": "address",
          "name": "account",
          "type": "address"
        }
      ],
      "name": "balanceOf",
      "outputs": [
        {
          "internalType": "uint256",
          "name": "",
          "type": "uint256"
        }
      ],
      "stateMutability": "view",
      "type": "function"
    },
    {
      "inputs": [],
      "name": "decimals",
      "outputs": [
        {
          "internalType": "uint8",
          "name": "",
          "type": "uint8"
        }
      ],
      "stateMutability": "view",
      "type": "function"
    },
    {
      "inputs": [
        {
          "internalType": "address",
          "name": "spender",
          "type": "address"
        },
        {
          "internalType": "uint256",
          "name": "subtractedValue",
          "type": "uint256"
        }
      ],
      "name": "decreaseAllowance",
      "outputs": [
        {
          "internalType": "bool",
          "name": "",
          "type": "bool"
        }
      ],
      "stateMutability": "nonpayable",
      "type": "function"
    },
    {
      "inputs": [
        {
          "internalType": "address",
          "name": "spender",
          "type": "address"
        },
        {
          "internalType": "uint256",
          "name": "addedValue",
          "type": "uint256"
        }
      ],
      "name": "increaseAllowance",
      "outputs": [
        {
          "internalType": "bool",
          "name": "",
          "type": "bool"
        }
      ],
      "stateMutability": "nonpayable",
      "type": "function"
    },
    {
      "inputs": [],
      "name": "mintToken",
      "outputs": [],
      "stateMutability": "nonpayable",
      "type": "function"
    },
    {
      "inputs": [],
      "name": "name",
      "outputs": [
        {
          "internalType": "string",
          "name": "",
          "type": "string"
        }
      ],
      "stateMutability": "view",
      "type": "function"
    },
    {
      "inputs": [],
      "name": "symbol",
      "outputs": [
        {
          "internalType": "string",
          "name": "",
          "type": "string"
        }
      ],
      "stateMutability": "view",
      "type": "function"
    },
    {
      "inputs": [],
      "name": "totalSupply",
      "outputs": [
        {
          "internalType": "uint256",
          "name": "",
          "type": "uint256"
        }
      ],
      "stateMutability": "view",
      "type": "function"
    },
    {
      "inputs": [
        {
          "internalType": "address",
          "name": "to",
          "type": "address"
        },
        {
          "internalType": "uint256",
          "name": "amount",
          "type": "uint256"
        }
      ],
      "name": "transfer",
      "outputs": [
        {
          "internalType": "bool",
          "name": "",
          "type": "bool"
        }
      ],
      "stateMutability": "nonpayable",
      "type": "function"
    },
    {
      "inputs": [
        {
          "internalType": "address",
          "name": "from",
          "type": "address"
        },
        {
          "internalType": "address",
          "name": "to",
          "type": "address"
        },
        {
          "internalType": "uint256",
          "name": "amount",
          "type": "uint256"
        }
      ],
      "name": "transferFrom",
      "outputs": [
        {
          "internalType": "bool",
          "name": "",
          "type": "bool"
        }
      ],
      "stateMutability": "nonpayable",
      "type": "function"
    }
  ],
  "bytecode": "0x6080604052670de0b6b3a76400006005553480156200001d57600080fd5b5060405162000d8138038062000d81833981016040819052620000409162000256565b6040518060400160405280600a81526020016925b2b9393caa37b5b2b760b11b815250604051806040016040528060038152602001624b544b60e81b815250816003908051906020019062000097929190620001b0565b508051620000ad906004906020840190620001b0565b505050620000c23382620000c960201b60201c565b5062000311565b6001600160a01b038216620000fb5760405162461bcd60e51b8152600401620000f2906200026f565b60405180910390fd5b6200010960008383620001ab565b80600260008282546200011d9190620002af565b90915550506001600160a01b038216600090815260208190526040812080548392906200014c908490620002af565b90915550506040516001600160a01b038316906000907fddf252ad1be2c89b69c2b068fc378daa952ba7f163c4a11628f55a4df523b3ef9062000191908590620002a6565b60405180910390a3620001a760008383620001ab565b5050565b505050565b828054620001be90620002d4565b90600052602060002090601f016020900481019282620001e257600085556200022d565b82601f10620001fd57805160ff19168380011785556200022d565b828001600101855582156200022d579182015b828111156200022d57825182559160200191906001019062000210565b506200023b9291506200023f565b5090565b5b808211156200023b576000815560010162000240565b60006020828403121562000268578081fd5b5051919050565b6020808252601f908201527f45524332303a206d696e7420746f20746865207a65726f206164647265737300604082015260600190565b90815260200190565b60008219821115620002cf57634e487b7160e01b81526011600452602481fd5b500190565b600281046001821680620002e957607f821691505b602082108114156200030b57634e487b7160e01b600052602260045260246000fd5b50919050565b610a6080620003216000396000f3fe608060405234801561001057600080fd5b50600436106100b45760003560e01c80633950935111610071578063395093511461013e57806370a082311461015157806395d89b4114610164578063a457c2d71461016c578063a9059cbb1461017f578063dd62ed3e14610192576100b4565b806306fdde03146100b9578063095ea7b3146100d757806318160ddd146100f75780632004ffd91461010c57806323b872dd14610116578063313ce56714610129575b600080fd5b6100c16101a5565b6040516100ce919061075a565b60405180910390f35b6100ea6100e5366004610726565b610237565b6040516100ce919061074f565b6100ff610259565b6040516100ce91906109b4565b61011461025f565b005b6100ea6101243660046106eb565b61026d565b61013161029b565b6040516100ce91906109bd565b6100ea61014c366004610726565b6102a0565b6100ff61015f366004610698565b6102cc565b6100c16102eb565b6100ea61017a366004610726565b6102fa565b6100ea61018d366004610726565b61034b565b6100ff6101a03660046106b9565b610363565b6060600380546101b4906109ef565b80601f01602080910402602001604051908101604052809291908181526020018280546101e0906109ef565b801561022d5780601f106102025761010080835404028352916020019161022d565b820191906000526020600020905b81548152906001019060200180831161021057829003601f168201915b5050505050905090565b60008061024261038e565b905061024f818585610392565b5060019392505050565b60025490565b61026b33600554610446565b565b60008061027861038e565b9050610285858285610512565b61029085858561055c565b506001949350505050565b601290565b6000806102ab61038e565b905061024f8185856102bd8589610363565b6102c791906109cb565b610392565b6001600160a01b0381166000908152602081905260409020545b919050565b6060600480546101b4906109ef565b60008061030561038e565b905060006103138286610363565b90508381101561033e5760405162461bcd60e51b815260040161033590610938565b60405180910390fd5b6102908286868403610392565b60008061035661038e565b905061024f81858561055c565b6001600160a01b03918216600090815260016020908152604080832093909416825291909152205490565b3390565b6001600160a01b0383166103b85760405162461bcd60e51b8152600401610335906108f4565b6001600160a01b0382166103de5760405162461bcd60e51b8152600401610335906107f0565b6001600160a01b0380841660008181526001602090815260408083209487168084529490915290819020849055517f8c5be1e5ebec7d5bd14f71427d1e84f3dd0314c0f7b2291e5b200ac8c7c3b925906104399085906109b4565b60405180910390a3505050565b6001600160a01b03821661046c5760405162461bcd60e51b81526004016103359061097d565b6104786000838361067c565b806002600082825461048a91906109cb565b90915550506001600160a01b038216600090815260208190526040812080548392906104b79084906109cb565b90915550506040516001600160a01b038316906000907fddf252ad1be2c89b69c2b068fc378daa952ba7f163c4a11628f55a4df523b3ef906104fa9085906109b4565b60405180910390a361050e6000838361067c565b5050565b600061051e8484610363565b9050600019811461055657818110156105495760405162461bcd60e51b815260040161033590610832565b6105568484848403610392565b50505050565b6001600160a01b0383166105825760405162461bcd60e51b8152600401610335906108af565b6001600160a01b0382166105a85760405162461bcd60e51b8152600401610335906107ad565b6105b383838361067c565b6001600160a01b038316600090815260208190526040902054818110156105ec5760405162461bcd60e51b815260040161033590610869565b6001600160a01b038085166000908152602081905260408082208585039055918516815290812080548492906106239084906109cb565b92505081905550826001600160a01b0316846001600160a01b03167fddf252ad1be2c89b69c2b068fc378daa952ba7f163c4a11628f55a4df523b3ef8460405161066d91906109b4565b60405180910390a36105568484845b505050565b80356001600160a01b03811681146102e657600080fd5b6000602082840312156106a9578081fd5b6106b282610681565b9392505050565b600080604083850312156106cb578081fd5b6106d483610681565b91506106e260208401610681565b90509250929050565b6000806000606084860312156106ff578081fd5b61070884610681565b925061071660208501610681565b9150604084013590509250925092565b60008060408385031215610738578182fd5b61074183610681565b946020939093013593505050565b901515815260200190565b6000602080835283518082850152825b818110156107865785810183015185820160400152820161076a565b818111156107975783604083870101525b50601f01601f1916929092016040019392505050565b60208082526023908201527f45524332303a207472616e7366657220746f20746865207a65726f206164647260408201526265737360e81b606082015260800190565b60208082526022908201527f45524332303a20617070726f766520746f20746865207a65726f206164647265604082015261737360f01b606082015260800190565b6020808252601d908201527f45524332303a20696e73756666696369656e7420616c6c6f77616e6365000000604082015260600190565b60208082526026908201527f45524332303a207472616e7366657220616d6f756e7420657863656564732062604082015265616c616e636560d01b606082015260800190565b60208082526025908201527f45524332303a207472616e736665722066726f6d20746865207a65726f206164604082015264647265737360d81b606082015260800190565b60208082526024908201527f45524332303a20617070726f76652066726f6d20746865207a65726f206164646040820152637265737360e01b606082015260800190565b60208082526025908201527f45524332303a2064656372656173656420616c6c6f77616e63652062656c6f77604082015264207a65726f60d81b606082015260800190565b6020808252601f908201527f45524332303a206d696e7420746f20746865207a65726f206164647265737300604082015260600190565b90815260200190565b60ff91909116815260200190565b600082198211156109ea57634e487b7160e01b81526011600452602481fd5b500190565b600281046001821680610a0357607f821691505b60208210811415610a2457634e487b7160e01b600052602260045260246000fd5b5091905056fea2646970667358221220c82bc66a2fbda6a64a14acad197d74f50caa9f29ff05a177135f364c5b9c1dfe64736f6c63430008000033",
  "linkReferences": {},
  "deployedLinkReferences": {}
}